:020000040800F2
:10000000680C0020C5000008CB0A0008C90A0008D7
:1000100000000000000000000000000000000000E0
:100020000000000000000000000000008D0B000830
:100030000000000000000000CD0A0008910B00083D
:10004000D700000800000000D7000008D700000813
:10005000D700000869010008D7000008D700000891
:1000600000000000D7000008D7000008D7000008F3
:10007000D7000008D7000008D700000800000000E3
:10008000D70000080000000000000000390F000841
:1000900000000000D7000008D7000008D7000008C3
:1000A00000000000D7000008000000009D120008BA
:1000B0000348854600F014F8004800471120000866
:1000C000680C00200448804704480047FEE7FEE72C
:1000D000FEE7FEE7FEE7FEE7A10B0008B10000081F
:1000E000064C0125064E05E0E36807CC2B430C3C8B
:1000F00098471034B442F7D3FFF7DEFFAC1700087F
:10010000CC17000870B50446002903D00020202237
:10011000012310E0002801D00020C043C046C046A3
:100120000DE02546D5408D4205D30D469540641B14
:100130001D46954040191546521E002DF1DC214602
:1001400070BDD2B201E00270401C491EFBD2704764
:100150000022F6E710B513460A4604461946FFF793
:10016000F0FF204610BD000010B51A48016889074D
:1001700011D50224046094480179002902D116495E
:1001800080220A608178002902D1C178002902D03A
:100190000079002800D010BD00F0B4FA3649086894
:1001A000002242623D228B5C012BF4D18C54C26848
:1001B00001210A43C260094A904202D0084A904293
:1001C00004D1826807231340062BE4D002680A4357
:1001D000026010BD1404014028000048002C0140BA
:1001E00000040040EFF3108072B65E4800681D4CBA
:1001F0001D49884207D101204002E1688143E16046
:10020000112000F0E3F819480068194D1949884297
:100210000DD10126B003E1688143E1600E2000F0BA
:10022000D5F8F0062860BFF34F8FBFF36F8F1248E9
:100230000068124988420AD10120010222698A43DA
:100240002261C0042860BFF34F8FBFF36F8F00207F
:10025000C1436160606021602060E161E06100F0A5
:100260000BFAC0460C10024000240140EC000020B4
:1002700080E100E000380140A400002000200040A0
:10028000FEB5002402943422364FB95C012901D115
:100290000220FEBD3B689968490716D401920668A2
:1002A000416801252F46B7402F4A914213D1986AE1
:1002B000B84398623046A84310282046294F019A37
:1002C0003CD1102E1AD02C4819E0B86B20210143E4
:1002D000B963012032E0996A394399622149CF6AB2
:1002E000791E0729019A2BD23046A84310282046B0
:1002F0001C4F23D1102E09D0A80508E01D481B492A
:100300000A6802400A602046019A17E0E80517498A
:100310000A6802430A60102E2046019A0ED1DC487A
:1003200000681349FFF7EEFE0A214143029102984B
:100330000028E8D00298401E0290F8E7BC54FEBDA9
:1003400029078F42D0D059690727394080688842F1
:10035000CAD05969B9435961384059690143596153
:10036000C2E7C046640000200110000008270140D9
:1003700040420F00FFFF7FFFFFFFBFFF10B50146A8
:1003800020314A78022A10D1026813680E24A34350
:10039000136013680124A3431360C26B006C2346EF
:1003A000834053604C70002002E0042282630120ED
:1003B00000220A7010BD0000401C0349CA6BCB6BC1
:1003C0009B1A8342FBD3704708000020F0B585B02C
:1003D0000921C90600263446324600900346D34020
:1003E00046D0012595402F4607403DD004940C246B
:1003F00034400F230293A340032403961646A643DA
:10040000804830581842019211D17E4832187B4EF4
:100410003068B84330607068B8437060F068B843C3
:10042000F060B068B843B0601068984310600498FA
:1004300084400868A04308601C20039E3040029A54
:100440008240019FF80880000818036A9343036202
:10045000C868A043C8604868A84348608868A0434B
:10046000049C886000983A46361DA41C521CB5E7CF
:1004700005B0F0BDF0B58BB004905F4A904201D05A
:10048000052000E00320009000273C463A460591F5
:100490000B681846D04000D1ACE001200546099217
:1004A00095402B4000D1A0E00193029008940324D2
:1004B0002046B840C3434E6832462240501E0128B1
:1004C00006970793039614D8049FB8681840CC6821
:1004D00006998C400443BC60F006C00F099988401F
:1004E0007C68AC433D46069F04436C60029B019EC2
:1004F00007E0032A049D029B019E02D12246039C31
:100500001EE0E8680799084005998C68BC400443E0
:10051000EC60022A039C13D11C20089908400F228A
:1005200082400999CC08A4002C19256A95430599A5
:100530000A6982402A43049D22624C6803222240B9
:10054000BA4028680799084010432860A003800F2C
:100550000599089C49D02A4A106818431060106811
:1005600018400A900C2222400F2090400324099D3D
:10057000A5430A9C234FEC598443ED190920C0067A
:10058000049F874209D02048874207D01F488742EE
:10059000009B069F03D1022301E00023069F9340A6
:1005A00023432B60154880684A68D30201D5304345
:1005B00000E0B043089C114B9860D868930201D5C5
:1005C000304300E0B0430D4BD8605868930301D529
:1005D000304300E0B043094B58601868D20301D59E
:1005E000304300E0B043054A1060BF1C241D099A47
:1005F000521C4DE70BB0F0BD000C00480004014058
:10060000181002400800014000040048000800489B
:1006100010B506480168202201235B050C04114037
:100620001C4009195140416010BDC04614000048EB
:1006300010B5174800687D21C900FFF763FD411E12
:10064000080E11D109480A4A51600A490B68034053
:100650000324A4071B190B60002393600723136076
:100660000A6802401019086010BDC046FFFFFF0075
:1006700010E000E020ED00E000F07AFF04480068A0
:10068000044909684905490F03A2515CC8407047F5
:1006900000000020041002400000000001020304DA
:1006A00010B50D490A680C2313400C48082B08D1DB
:1006B00093021B0F0AA4E45C896AD20303D4104896
:1006C00007E0044606E00F22114009A2515CFFF743
:1006D00019FD4443204610BD0410024000127A0068
:1006E00002030405060708090A0B0C0D0E0F101073
:1006F0000102030405060708090A0B0C0D0E0F1072
:1007000000093D0010B50A480268D36801218B43F7
:10071000D360136A074C234206D1136A064C234266
:1007200002D113688B4313603D22815410BDC04633
:10073000A40000201111000044040000F8B56C4C26
:1007400021680120086202220A6204220A6210263D
:100750000E6208250D62EFF3108180F310880922E4
:10076000520123681F6897431F6081F31088EFF3DD
:10077000108180F31088226893688343936081F32B
:100780001088216E012909D1EFF3108180F31088C0
:1007900022681368B343136081F310882168896865
:1007A00049061AD5EFF3108180F31088206882681B
:1007B00040239A43826081F31088606F00280CD038
:1007C00000214163FFF7DAFD002806D0606F806BDF
:1007D000202802D1842026500CE05A2000212152EA
:1007E00020680F22026282692A43826180202022CF
:1007F0002250216600F002F8F8BDC046F0B5802313
:100800003B49C85820280BD18D680120020395422E
:1008100008D10C69002C05D1A34CE40702D0F0BD2F
:100820000220F0BD00240C660868406800020CD568
:10083000EFF31080012585F31088AD060E68376848
:100840002F43376080F310888D685A260120885323
:1008500058268853944E4E658C66002D08D00603AA
:10086000B54225460AD10D69002D06D1214D05E07E
:100870000D69002D01D07F2500E0FF2584268C51D5
:100880005C240D532224CC50EFF3108380F31088A6
:100890000C68A5680543A56083F310880B698C6814
:1008A000944204D1002B13D0134A8A6603E0124A03
:1008B0008A66002B0ED0EFF3108280F31088092097
:1008C000400109680B6803430B6082F310880CE059
:1008D0000A4A8A66EFF3108280F31088086801687C
:1008E00020230B43036082F310880020F0BDC04634
:1008F000EC000020FF01000071110008B110000899
:10090000F8B5B44CA17A68480078A289322A17D386
:10091000002901D00021A1720021A181012809D163
:100920006548002121546348664A22525F4821529B
:100930000320A072FFF762FF002800D0B2E0F8BDEC
:100940000025A5810629F5D87944097949008F4405
:1009500003041D3C51697200E0E75449625A521C7D
:100960006252544BE65AF7B247407F005349C95B85
:10097000360A4E40E652218A09020818208290B2B7
:100980000228D7D1494825520420D2E74749625A64
:10099000531C6352464EA25B12021218A25398B225
:1009A0000228C7D14348235A92B293425BD1228A8C
:1009B000002A56D0255265520520A0724048824236
:1009C000B8D33D4801212154B4E73849625A531C39
:1009D0006352384BE65AF7B247407F003749C95B4C
:1009E000360A4E40E652A073002AA3D12F48255262
:1009F00001209EE78321C90060542C49625A531C90
:100A000063522C4BE65AF7B2474078002B4F385AC6
:100A1000360A4640E652002A8CD1254825526552B6
:100A2000022086E72449615C00291ED01F49605AD4
:100A3000401C60522BE01D49625A521C62521C49F4
:100A4000635A1B021818605291B2022900D071E754
:100A50001949615C002906D11649615A80B2814268
:100A600001D100F0B9F8A57264E71049625A531C2D
:100A70006352104BE65AF7B247407F000F4BDB5BE7
:100A8000360A5E400B4BE652A2189074605A218AD7
:100A900080B2884200D04DE70548255203482552D0
:100AA000062046E7FFF79EFB7401002012040000B9
:100AB000160400001404000019040000AA15000820
:100AC00001040000C1C00000FEE7FEE7704700001F
:100AD0000748016801220A400068022101405118BC
:100AE0000320484003490968890400D4001D704769
:100AF0001014004810000048FEB5284A147A4B68CC
:100B00001D78AC4223D15C78A13C032C1FD8012373
:100B10007C4424796400A7440201161800239371D1
:100B2000D379547A01AD4D60968A528A08270F8195
:100B30002C706B70EA706E71120AAA70320A2A71F8
:100B400000F0F0F803E0012000E0002090710120A7
:100B5000FEBDC046BCB5F64A137A4C682478A34261
:100B600011D1537A6C462370D3794C606370938AA9
:100B7000528A06250D81E2706371120AA2701A0A68
:100B8000227100F0CFF80120BCBDC04670470000C4
:100B9000E748C16B491CC1637047C046080000208C
:100BA00070470000B0B5C722D300594AD4180023BB
:100BB000142B0ED06568002D02D008345B1CF7E7BB
:100BC000207061605448145CD9B28C4201D8491C31
:100BD0001154B0BD78010020F0B587B002AD1421EA
:100BE0002846FFF7B5FA4A4CA07B28708320C00046
:100BF000205CA870208A2881204612300390454846
:100C0000215C0026464B3246C8B2824227D201926E
:100C1000A719FA58002A1DD09520C000385C1D463F
:100C200002AB1B7898422B4614D14B200001009058
:100C30003C186068A1680590069102A93448904765
:100C40002B460599069A6160A2603249304A515C90
:100C5000002820D11436019A521C2D4CD4E70026CE
:100C6000069605962C4D615DC720C0002718C8B2B6
:100C7000864218D27A68002A0AD002A880783B7887
:100C8000834205D102A920469047615D00281ED10C
:100C90000837761CEBE7009A032826D0022834D1C7
:100CA0006088B85231E01D4D615DDB20C700002631
:100CB000C8B2864229D2E259002A05D002A92046AC
:100CC0009047615D002807D13F1D761CF0E703289F
:100CD0001BD10020786003E0032816D10020E051EA
:100CE000481E864211D160550FE000206060A06070
:100CF000FA58002A1A46064B07D0BA181060481E48
:100D00000199814201D10349585407B0F0BDC04652
:100D100078010020EC060000ED060000EE06000061
:100D2000AC040000F0B585B001224A70514BC518E3
:100D3000AB7A002B00D098E04D4BC418AA720491F6
:100D40000B786370009422704B4C00190390C124FF
:100D50005C40E3B25B004948C45AC0236340164676
:100D6000D4431F0A002C10D003980219049800895C
:100D7000F1B2C900C84090705840C0B240003F492D
:100D80000B5A7B40641C761EEBE7049CA078009A0B
:100D90001071D9B21346414048003849085A4740BB
:100DA0009771000A50710721296000222A81208949
:100DB00068606768002801D0002F56D0049700288B
:100DC00039D004468020401A0394A04200D30398EF
:100DD0000292BA185B1881B20191002913D01478DD
:100DE0001C702F897C40E4B264002E4605462348DF
:100DF000045B284635463F0A67403781049F491EF9
:100E0000521C5B1CE9E72968019A89182960029A3B
:100E10008218039B181A8029009BD0D18021074695
:100E20001846144600F02CF83846049F2246009BD2
:100E300000212960C3E76868002811D008467F3880
:100E4000012805D8184600F01BF8009B00212960F6
:100E5000687A58545818297A41702868811C29608A
:100E6000184600F00DF80020A87205B0F0BDC0468D
:100E70001A0400009C0400001C040000AA150008CD
:100E8000F8B50546294CE06F202848D1002D46D002
:100E9000080444D0A26801200003824206D12269DE
:100EA000002A024602D1EA07024638D184260023EE
:100EB000A3515026A1532126E667F74EF66B009604
:100EC0005227E1534240206910432E4600D01E466F
:100ED000002800D10546E05B002818D080212D2392
:100EE0002046009A00F0A6F9002816D12068002DAF
:100EF00003D0297801856D1C05E031880D4A114029
:100F00000185B61C0025E05B401EE053E3E707487F
:100F100040212D23009A00F08DF92020E067E06F3A
:100F20002028FCD1FFF76AFCF8BDC046EC00002089
:100F300008000020FF010000F8B53F4B1868C668A4
:100F40008024E5430769B90707D5B10705D52946C8
:100F50007E310161002119778169790707D5710711
:100F600005D529467C31016100211977816939074E
:100F700007D5310705D52946783101610021197758
:100F8000C169F90607D5F10605D529467031016119
:100F900000211977C169F90737D0F10735D0294603
:100FA0007F3101610161BC48016B491C0163028A08
:100FB000914202D3827A002A0FD0502925D3C17AD8
:100FC000002922D100210163012109024181FFF79B
:100FD00099FB194B1948046117E001214181174A17
:100FE0001460C278002A05D0028A4A2A0CD8018AE5
:100FF000491C07E08278002A07D0028A062A03D318
:10100000018A491E018200E00171380603D53006CD
:1010100001D518680561780605D5700603D51868EE
:10102000294640310161B80604D5B00602D51868DA
:1010300060350561F8BDC046A400002018000048D6
:1010400080B5406A0146523100220A815221425243
:10105000FFF774FB80BDB0B5EFF31082012181F37F
:10106000108809235B01046825689D43256082F38D
:101070001088EFF3108281F3108803689C688C431A
:101080009C6082F31088026E012A0AD1EFF310826D
:1010900081F3108801680B681024A3430B6082F36E
:1010A0001088802120224250002181660166B0BD57
:1010B00070B5802142580168222A0FD102465A3267
:1010C0005388898C1940436D19801188491E1180FD
:1010D000991C41651188002905D070BD88690822D6
:1010E00002438A6170BD02468032EFF31083012112
:1010F00081F310880924640105682E68A6432E60D8
:1011000083F31088EFF3108381F310880468A568D7
:101110008D43A56083F3108820231360002242666C
:10112000826603685B681B020AD5EFF3108381F3C4
:1011300010888C0605682E68A6432E6083F31088FD
:10114000036E012B11D10266EFF3108281F3108838
:1011500003681C6810218C431C6082F310880068AF
:10116000C269D206B9D5016270BDFFF7C9FB70BD77
:1011700070B5802142580168222A10D102465A32A5
:101180005388898C1940436D19701188491E11804C
:10119000416D491C41651188002905D070BD8869E1
:1011A000082202438A6170BD02468032EFF3108349
:1011B000012181F310880924640105682E68A64383
:1011C0002E6083F31088EFF3108381F31088046896
:1011D000A5688D43A56083F3108820231360002247
:1011E0004266826603685B681B020AD5EFF31083D0
:1011F00081F310888C0605682E68A6432E6083F361
:101200001088036E012B11D10266EFF3108281F377
:10121000108803681C6810218C431C6082F31088BE
:101220000068C269D206B9D5016270BDFFF768FBDC
:1012300070BD0000FEB5066801240194E702044673
:1012400078340294144DF4690C408C4213D0EC6B4A
:10125000A41A9C4211D834686407F4D54029F2D00E
:101260008029F0D0F469240709D4F4693C42EAD01B
:101270000324202506E000240BE0032409E00827CE
:101280003D46019C3762FFF7E6FE00200299087098
:10129000CD602046FEBDC04608000020FEB5B04F20
:1012A0003868C269016886680125EB021C460F3464
:1012B000224271D0AB4C0C402E40341970D0D40770
:1012C000029109D0CC0507D505628421A44F7F582F
:1012D0002F43A34C675002990227144601973C40C4
:1012E00067426741744274413C430BD1019C0462E4
:1012F00084249B4909590091042700990F43984978
:101300000F5102997442744157072F4600D5274662
:10131000002F934F0CD10424046284240094904F36
:101320003F59019C27438E49009C0F5102998C4FD5
:1013300014070CD5741EA6418C0600D43546012D29
:1013400005D10824046284257E5926437E511A4221
:1013500007D04C0105D503628423FC582025254382
:10136000FD5084257B59002B39D0920607D589067C
:1013700005D5B96E002902D03846884738687959B2
:1013800028220A4080684026304080182AD1FFF782
:10139000D5F900207851FEBD930601D58B064FD4B8
:1013A0003B6E012B03D1D30601D5CB064ED41006DC
:1013B00001D5080614D4500611D548060FD5EFF311
:1013C0001080012181F3108839680A6840239A430C
:1013D0000A6080F310880020F8662020F867FEBDC0
:1013E000F96E2EE03846FFF736FE38688068400612
:1013F00064D5EFF31080012181F310883A68936877
:10140000B343936080F31088786F002856D002466B
:101410002032554B43635378022B00D09AE0036887
:101420001C680E25AC431C601C688C431C60C36B9D
:10143000046C0D46A5405D600023137051708BE075
:10144000B96E0029CBD046488847FEBD1021016205
:101450008068400635D45A23F85A5822BA5AFB5AA3
:10146000002BBCD08242BAD0EFF31082012080F36F
:10147000108809235B013C6825689D43256082F341
:101480001088EFF3108280F310883B689C688443D7
:101490009C6082F3108880222023BB500022BA6611
:1014A0003A66EFF3108280F31088386803688B4344
:1014B000036082F3108802207866FEBDFFF73EF9D4
:1014C000FEBD786F0268526893B2002B00D186E7A8
:1014D00058243C5BA34200D381E75A257A538069A4
:1014E000202833D0EFF31082012080F310881F4BA7
:1014F00020333C6826681E40266082F31088EFF394
:10150000108280F310883B689C6884439C6082F35F
:101510001088EFF3108280F310883B689C684026A7
:10152000B4439C6082F3108880222023BB500022A9
:101530003A66EFF3108280F31088386803688B43B3
:10154000036082F31088786FFEF718FF0220786638
:10155000785BFEBD04218163FFF772FDFEBDC046CE
:10156000EC0000202001000441100008DFFEFFFF16
:10157000BFF34F8F034804490160BFF34F8F00BF93
:10158000FDE7C0460CED00E00400FA0502E008C8E3
:10159000121F08C1002AFAD170477047002001E0ED
:1015A00001C1121F002AFBD170470000C1C081C1D8
:1015B000400101C3C003800241C201C6C0068007CA
:1015C00041C70005C1C581C4400401CCC00C800DD9
:1015D00041CD000FC1CF81CE400E000AC1CA81CBE0
:1015E000400B01C9C009800841C801D8C018801942
:1015F00041D9001BC1DB81DA401A001EC1DE81DF48
:10160000401F01DDC01D801C41DC0014C1D481D508
:10161000401501D7C017801641D601D2C0128013E1
:1016200041D30011C1D181D0401001F0C0308031D0
:1016300041F10033C1F381F240320036C1F681F747
:10164000403701F5C035803441F4003CC1FC81FDD8
:10165000403D01FFC03F803E41FE01FAC03A803B61
:1016600041FB0039C1F981F840380028C1E881E91F
:10167000402901EBC02B802A41EA01EEC02E802FC9
:1016800041EF002DC1ED81EC402C01E4C024802508
:1016900041E50027C1E781E640260022C1E281E35F
:1016A000402301E1C021802041E001A0C0608061B1
:1016B00041A10063C1A381A240620066C1A681A7C7
:1016C000406701A5C065806441A4006CC1AC81ADD8
:1016D000406D01AFC06F806E41AE01AAC06A806BE1
:1016E00041AB0069C1A981A840680078C1B881B93F
:1016F000407901BBC07B807A41BA01BEC07E807F49
:1017000041BF007DC1BD81BC407C01B4C074807507
:1017100041B50077C1B781B640760072C1B281B3DE
:10172000407301B1C071807041B00050C19081918F
:1017300040510193C053805241920196C056805748
:1017400041970055C19581944054019CC05C805DD7
:10175000419D005FC19F819E405E005AC19A819B5E
:10176000405B0199C059805841980188C048804920
:101770004189004BC18B818A404A004EC18E818FC6
:10178000404F018DC04D804C418C0044C184818507
:1017900040450187C047804641860182C042804360
:1017A00041830041C181818040400000682F0008D2
:1017B00000000020080000008C150008702F0008B1
:1017C00008000020600C00009C15000800000000CC
:1017D0000000000000000000000000000000000009
:1017E00000000000000000000000000000000000F9
:1017F00000000000000000000000000000000000E9
:1018000000000000000000000000000000000000D8
:102000000000000000000000131023410000000841
:1020100000B59BB0F64D286810210991084328604F
:10202000FEF706FBF34CA06901210843A061A069FB
:1020300008401590159813910907E0690843E0617D
:10204000E0690F9108401590159860680007800FAF
:10205000E94B17D060680C210140082904D11846CB
:102060001030616801420DD0206813990843206048
:10207000E248C16B2268920705D4C26B521A022A49
:10208000F8D930E220682068802110910843782632
:10209000B0432060606A139908436062D74FF86BC1
:1020A000616A890704D4F96B091A0229F8D91AE27E
:1020B000606B0421069108436063606B13990843C9
:1020C0006063F86B616B890704D4F96B091A022904
:1020D000F8D908E2606B10990843B0436063606808
:1020E0000C210B910840082800D053E16068E16A98
:1020F0001A461032104200D0F5E10F22114000D0F4
:10210000F1E1910408400521C904884200D0EAE1C8
:102110002868C00707D12868012101432960286881
:10212000C00700D1DFE10720039003026068184375
:1021300060606068F021884360602068B049491C95
:10214000084200D1CFE1606802210791084313994A
:1021500088436060F86B61680B9A1140082906D0CB
:10216000F96B091AA74AC9329142F4D9BBE1029628
:1021700028686068129398436060FEF791FA61687E
:102180000906090FA0A2515CC840A3490860FEF7E8
:102190004FFA206B0322904320630026199618966D
:1021A000139B99056069084360616069009108406C
:1021B0001A901A9859046069084360616069019136
:1021C00008401A901A989804616901436161616935
:1021D00001401A911A980920C00614909D02089592
:1021E000E0358562179316960A9215928B4815ACC6
:1021F00021468B4A90471896179613981690159576
:1022000014982146864A9047079D179511200E90F5
:1022100000041690159583482146814A90471795EA
:102220001696139D680211901590149821467C4AC9
:1022300090477B4A17961696680315901498214686
:1022400090472420784B05901E54FF200002774AC7
:10225000116881431160764920200C900860754810
:102260002A469D621E6229020D910D46C13541C369
:102270001E605E609A600698D86034461E615D619B
:10228000083B986B002820D1342100205854D86393
:1022900019901890574B9969119A1143996199694E
:1022A00011401A911A995969019A11435961596952
:1022B00011401A9117900A9816900E9815901A9836
:1022C00015A91498FEF7D6F8574B19463831986B74
:1022D000C00601D500F006FE18688268520701D5D5
:1022E00000F000FE54491E319A6B0A40911C99631C
:1022F00081680A9A1140139AD2030492012906D1E7
:102300000168C90712D1C168049A11420ED1C1688F
:10231000182291435A68444B9B680B43C3600A9947
:10232000890703698B43134303613F4B0995C168D8
:10233000F84A0A40C260996A7D2252010E92012930
:1023400001D00E9C6034197E89035A7E1E46D30349
:102350000B43B27E51031943F36835690B432343A2
:10236000A91E4C424C41A4001C430599715C4900D4
:102370002143F37E012B38D1002A0F9D5ED02A4CD9
:10238000A26B0C9B1A43A263E26B01231343E3632A
:10239000234657E013980006216881432160F96BBA
:1023A000174B581C2268024204D0F86B401A0228CE
:1023B000F7D998E0E16A0F229143E1623D210904D7
:1023C00062688A430521C90451186160E849491CC3
:1023D00022680A432260F96B2268024200D097E625
:1023E000FA6B521A022AF7D97DE00F4B0F9D29E0B4
:1023F0000020024000100240F0FF00000800002012
:10240000FFFFFF01BF1200000000000000000000FD
:102410000102030406070809000000200014004818
:1024200075040008000400486400002004E400E093
:1024300000E100E000240140DFFEFFFFCD4A103242
:102440001143CD4BDA69099CA242039C04D0CA4BCC
:102450001B6A1943C84B1143C2680A43C260DA6A57
:10246000531E072B00D3B6E14369A34343612240C7
:10247000436913434361C068C04A02408A4201D0A5
:1024800000F025FD0026BC4AD663906B012109911E
:102490000843079988439063179515960E98603006
:1024A0000F90169015A8FDF7EBFE00281BD106989B
:1024B000159015A8FDF7E4FE002814D1B04BB148E3
:1024C0001860B14818600A9858600E985F3098609C
:1024D000F96BDA68520708D0FA6B521A282AF8D337
:1024E000DA685207F5D0FDF77DFE1969A74A8142E7
:1024F00001D11A6000E01861A5488661A54A44C070
:102500000660A549416086603D210838435C002B88
:1025100015D13C230024C454A04DEB690D9C2343EA
:10252000EB61EB6923401593159B9D4DEB68904C37
:102530002340039CEB600123DB049A4D2B60079B37
:1025400043540369109DAB43E4011568A5431D4343
:1025500083692B431360C368D36243689362099D08
:1025600055611369DB0702D01369AB43136146223F
:1025700085543E22855402463E3255709570D57082
:10258000422285540246423255709570D5704554AA
:10259000854B86481E625E62E121490243C31E608C
:1025A0005E600B999960DE601E61AC030C3BD96FD5
:1025B00000292BD1002002995854784A916921436F
:1025C000916191692140159115995169019B1943B8
:1025D0005161516919401A910A9918911790022076
:1025E00016900E2015901A980125199515A9149882
:1025F000FDF740FF6C4B6A4A50695D4908405061E5
:10260000E806099D6749086018685E6A0599D967F8
:102610000168A9430160002E4AD0310705D5416801
:10262000634A11405A6B0A434260F10705D06904BE
:1026300042688A43996A11434160B10705D529046C
:1026400042688A43D96A11434160710705D5A904DC
:1026500042688A43196B11434160F10605D58168D0
:10266000544A11409A6B0A438260B10605D569034A
:1026700082688A43D96B11438160710610D52905A0
:1026800042688A43484B1B6C1A4342608B42464B5C
:1026900006D10A99490542688A43596C1143416041
:1026A000310605D5E90442688A43996C11434160BB
:1026B0000168414A0A4099681E461B690B437569C7
:1026C0001D431543F1690D4305600A9A12034368DF
:1026D0009343F2681A434260B269336A13430B2290
:1026E0001202856895431D4385602C48006B800766
:1026F000000F32A212580498814222D1082A109D5C
:10270000129E294B00D9DDE33048910002A25158B6
:102710008F46C0461902FEFF3D270008C52E00085F
:10272000ED270008C52E0008DF270008C52E000889
:10273000C52E0008C52E0008EB270008FDF79EFFF8
:102740004FE0082A109D129E174B00D9BAE31F488C
:102750005200C0467A449288520097443900B3032D
:102760006100B3035A00B303B303B3036000C04670
:10277000FFFFFF00F0FF000064000020E7FF3F8341
:1027800000300040CCCC000055550000AAAA000043
:10279000A400002000200040BF12000000100240F2
:1027A00004E400E000E100E0EC000020003801401B
:1027B000FF7FFFFFFFEFFFFFF369FFFF0000000057
:1027C00004000000080000000200000000127A006F
:1027D000FDF754FF1FE0AA4200D145E64BE6FDF7A6
:1027E0005FFF0028EC4B01D128E0049840005968B5
:1027F0004A081018FDF786FCE74B01461039E74AF6
:10280000914200D35EE3E54901400007400F0843D1
:1028100012E0FDF745FF0028DF4B01D10EE00498E0
:1028200059684A081018FDF76DFCDB4B014610395A
:10283000DA4A914200D345E31968C8601868816894
:10284000214381608168D64A114081600168D54A80
:102850000A4002600168099A114301608421002244
:102860005A509A661392DA66FA6B01680907CE4BE2
:102870000CD509984105C84C20460592FEF7DAFCB4
:10288000002800D034E32068C74B059A0068400751
:1028900007D5C14C20460099FEF7CCFC002800D09B
:1028A00033E30C98BC49C86748510298139B0B54FA
:1028B0000B664B66099CBC65FB643B653946403141
:1028C0000B71BA480246083A3A64497D00290CD196
:1028D000542100227A54B64B596940221143596160
:1028E0005969139B1140159115995521079A7A54EE
:1028F000DA438260026860239A4302600268AA4356
:1029000002607C547878002816D1AA4C60CC083C30
:1029100020460830DD21C900FDF71AFC2560109D16
:102920006660129E099878703920A349FEF73AF93B
:102930002820A249FEF736F9FDF760FFA04B786B1F
:10294000F96B081A642800D2E4E0F86B786302207F
:1029500017900F981690BC7B002C04D0012C11D13D
:102960000025042001E005252046159015AE3046CF
:10297000FDF786FC0E986130169015953046FDF7F0
:102980007FFC8F4B1E68B068400733D43425585DF8
:1029900001282FD001225A55587E012810D100203D
:1029A00058558849FF319A6B0A400D990A439A633A
:1029B000D8631C203060B06804210143B16019E085
:1029C00000201A90B0680A990840012806D13068A2
:1029D000C007E4D1F06804990842E0D1B0687A49B0
:1029E000084200D142E2986B102101439963D86BF1
:1029F0001043D86318685969082903D10821109D2C
:102A0000129E05E0C168C9070B99109D129E30D136
:102A1000FA6B03680B420FD1FB6B9B1A0B2BF8D39D
:102A200003680B42F5D134200021654B1954986B93
:102A300004210143996334E0614B996B119A11436E
:102A40009963C1680905890F26D1997E002923D190
:102A50000168090720D58168490712D441680C2212
:102A600091434160594A1F32996B11401A463832DE
:102A70000EE0342000211954986B0C990843986398
:102A80000FE0996B0C9A114399631A463C32D96B4B
:102A900001230B4313604A4B197E002901D10C21FD
:102AA0000160012C0DD0002C34D11868006CB88264
:102AB00080B209280FD8787AD72101407972099815
:102AC00027E01868006C788280B2092812D8787ADA
:102AD000EB2101401BE00D999131884203D30E99FF
:102AE000884200D858E101207871797A28220A4377
:102AF0007A720EE00D999131884203D30E99884283
:102B000000D84EE101207871787A1421014379725E
:102B10000020B8737879002833D00520F871139815
:102B20003871F870B870787AFC21014079724021D0
:102B3000149A91629562B97900290AD13021014035
:102B4000149A1269119B1A400A4302D10021F971AB
:102B50007971F9693A6AFB6B591A9142184B00D2A4
:102B60007FE0FC7B1AA1095D022965D001295CD0B8
:102B700000296CD1C00666D538780028139862D138
:102B8000F0E0F87905286CD8784400794000874453
:102B900022D18CA46C21C046EC000020F0FF000084
:102BA000FF7FFFFFFFFF00FCFFFFFF010830024037
:102BB0000010024078010020550B0008F90A0008B7
:102BC00064000020FFEFFFFF17000080DFFEFFFF23
:102BD00000010200A3E70D9EF4363046FDF7ECFB42
:102BE00014990C98886208988862402088628D62E7
:102BF000FDF76EFF38721299D0314143B96130460A
:102C0000129EFDF7D9FBD24B0020B871B870F87056
:102C100078810999F971F8613862B881797A8E22E0
:102C20000A40511C797238711BE080060BD5387848
:102C30000028079807D195E0400604D53878002889
:102C4000069800D18EE000203870641CFC73E0B25E
:102C5000032801D30020F873387B002801D1F86BDA
:102C6000F861BD48BD49016069E67C7A0A988443F1
:102C7000601C78723879002800D198E014980C997B
:102C8000816208998162FDF723FFF96B0022BA7116
:102C9000BA70FA703872099BFB713346D0334343E4
:102CA000BB61AB4BF9623A7182E0787A01460A9ACD
:102CB00011437972B979002963D114990969119A7C
:102CC00011425ED1F96B0022BA70099BFB7004239C
:102CD000FB719F4BF9623A71BBE0787A0A9908431D
:102CE0007872B879002816D11498006911990842B1
:102CF00011D1F86B052139820021B970099AFA7057
:102D00000422FA71F86239711420FDF755FB904BDB
:102D1000402014998862B8780028A2D03879002819
:102D20009FD0F86AF96B081A14289AD30020B8705B
:102D3000F87078E7787AFC210140481C7872B979FC
:102D4000786A002841D000294CD114990969119A58
:102D5000114247D100207862B86214980C998162C0
:102D6000786A3DE0B96B002964D0787B002800D1F7
:102D70009BE0401E7873F86BF861FDF749FC744BDB
:102D800065E73979002963D04021149A91610A9945
:102D9000F971F96BF9625CE0787AD721014008316A
:102DA0008CE6787AEB210140081D7872B0E6F96A6A
:102DB000F86B401A3146CF31884200D851E70520E0
:102DC000F871412004437C724BE7002904D1149828
:102DD0000069119908420AD0F86BF96B7862B96200
:102DE000002804D0F96B081AB96988420ED2B86A73
:102DF000002800D135E7F96B081A322800D230E7F5
:102E0000F86BB862FDF704FC514B2AE714980C9953
:102E1000816108998161F86B4B2139820999B970F8
:102E20000021F9700222FA7179817962B962F8623F
:102E3000397116E7C8217873F86BF8613962387B0D
:102E4000401C387314980C998161B86B401C37E0B2
:102E5000F96AFA6B511A3246CF32914200D800E734
:102E60000521F971432108437872FAE6B0680592AA
:102E70001043B060354800683A49FDF743F91A90AD
:102E80001A98002802D01A98401EF8E7F86B304BC9
:102E9000059A3168C90700D081E5F96B091A032941
:102EA000F7D33168C907F4D19DE50020B8810899AE
:102EB0001839F861396214990C9A8A620999397043
:102EC000B863C4E600209866D866FDF78BF9204AFF
:102ED000906B102101430798814391633C32114666
:102EE000139809900868099A10430860FDF77AF969
:102EF000EFF31080099981F3108821680A68AA43CA
:102F00000A6080F310887C3418E0EFF310802546C7
:102F1000099C84F3108829680A680E4B1A400A60DD
:102F200080F31088EFF3108084F3108829688A6892
:102F3000A2438A6080F3108880352C46029813994A
:102F4000074A11540C982060FDF74CF9000000204E
:102F500064000020DFFEFFFF00300040AAAA00004E
:102F6000EC00002040420F0000127A000000000038
:04000005080000B13E
:00000001FF
