:020000040800F2
:10000000680C0020C5000008D31F0008A31F0008CB
:1000100000000000000000000000000000000000E0
:10002000000000000000000000000000D71F0008D2
:100030000000000000000000D51F0008D91F0008C4
:10004000D700000800000000D7000008D700000813
:10005000D700000831040008D7000008D7000008C6
:1000600000000000D7000008D7000008D7000008F3
:10007000D7000008D7000008D700000800000000E3
:10008000D70000080000000000000000552900080B
:1000900000000000D7000008D7000008D7000008C3
:1000A00000000000D7000008000000004D300008EC
:1000B0000348854600F08EF8004800477931000873
:1000C000680C00200448804704480047FEE7FEE72C
:1000D000FEE7FEE7FEE7FEE7E11F0008B1000008CB
:1000E00030B50B46014600202022012409E00D46D0
:1000F000D5409D4205D31D469540491B2546954058
:1001000040191546521E002DF1DC30BDF0B51FB46C
:100110000646002082B005464024019100901BE075
:10012000019922460F46304600F020F8049A059BBC
:10013000801A994110D310461946224600F039F82A
:10014000361A8F410197224601200021009F00F0BE
:1001500030F838184D4100902046641E0028DFDC3E
:10016000019B00982946324607B0F0BD10B5202A01
:1001700004DB0846203AD040002110BD0B46D34096
:10018000D0402024A21A91400843194610BDD2B293
:1001900001E00270401C491EFBD270470022F6E7C6
:1001A00010B513460A4604461946FFF7F0FF2046ED
:1001B00010BD10B5202A04DB0146203A91400020F2
:1001C00010BD914020239C1A0346E3401943904000
:1001D00010BD0000064C0125064E05E0E36807CC83
:1001E0002B430C3C98471034B442F7D3FFF764FF1D
:1001F000B8360008D8360008FEB500F057FE604E4D
:10020000316A401A64287CD300F050FE306201202D
:100210000003019002200290B07A5A4C0427002576
:10022000002804D001280FD0022819D024E000951E
:100230006946554800F008FA052000900194694687
:10024000514800F001FA17E0009769464E4800F067
:10025000FBF90095019469464B4800F0F5F90BE075
:10026000052000906946484800F0EEF90097019497
:100270006946454800F0E8F9434800F0D5FB0A21FB
:10028000414800F06DFBB07A0124002812D001280B
:1002900038D0022835D13C4800F062FA80B2B082F2
:1002A0000A2855D2707BFB210840DF21084070737B
:1002B000747162E0344800F053FA80B230830A2847
:1002C00006D2707BEF2108404006400E707315E0A7
:1002D000FF2291321021904203D97D225201904297
:1002E00007D9707B0843802108437073347105E09F
:1002F00007E0707B08434006400E7073B07A401CE4
:10030000B072FEBD204800F02BFA80B2F082BF210F
:100310000A2805D2707BF72210400840707313E062
:10032000FF2391330822984203D97D235B01984231
:1003300006D9707B1043402108437073347103E089
:10034000707B104308407073B07A401CB072FEBDE1
:100350007D214901884207D9707B38432021084319
:1003600070737571347108E0717B39437173718AF0
:10037000884201D3747100E07571B572FEBD000052
:10038000000000200110000048000020F8B50446DD
:1003900000200090206881688907890F012905D114
:1003A0000168C9073CD1C168090439D481681D4A74
:1003B000102611400125002907D0A06B3043A0630F
:1003C000E06B2843E0630120F8BD81682943816028
:1003D000164815490068FFF783FE009002E0009878
:1003E000401E009000980028F9D100F05FFD0746FC
:1003F00011E000F05BFDC01B02280CD920680068EA
:10040000C043C00707D0A06B3043A063E06B284314
:10041000E0630120F8BD20680068C043C007E8D150
:100420000020F8BD1700008040420F00440000206B
:1004300010B5022000F06CFC10BD000072B60A4836
:1004400000F050FB0848403800F04AFA0648643093
:1004500001F0A6FC04481C3001F08EF900F0A8FB66
:1004600000F09CFDFCE7000088000020F8B500F0DB
:100470001DFD744C216B401A616B88427ED3607BFA
:10048000FF2781060126F5370025002902DA217CA5
:1004900000290AD0410602D5217C012926D0000678
:1004A00002D5207C022853D08CE0A07B002810D0FD
:1004B000A573E573256326747D200001606300F059
:1004C000F5FC2063012209209102C00600F0E7FC40
:1004D00078E0A673676300F0E9FC2063012109203E
:1004E00000228902C00600F0DAFC6BE0A07B02214A
:1004F00000280ED0E07B002819D0401EE07300F0E9
:10050000D5FC2063012109208902C00600F0BFFC50
:1005100058E0A673E173676300F0C8FC2063012113
:10052000092000228902C00600F0B9FC4AE0A57348
:10053000E573256321747D200001606300F0B6FC43
:100540002063012209209102C00600F0A8FC39E0D6
:10055000A07B002817D000F0A9FC216B401A616B2A
:1005600088422FD3E07B00281CD0401EE07300F0AF
:100570009DFC206301218902092000E02EE0C006D5
:1005800000F085FC1EE0A6730420E073676300F0B2
:100590008DFC20630121092000228902C00600F0A1
:1005A0007EFC0FE0A573E573256325747D200001B3
:1005B000606300F07BFC2063012209209102C006E9
:1005C00000F06DFC207C032809D0A17B002905D117
:1005D000401CC0B22074032800D92574F8BDA07B4C
:1005E00000280ED0E07B00281AD0401EE07300F0F7
:1005F0005DFC2063012109208902C00600F047FC50
:10060000F8BDA6730620E073676300F04FFC20631B
:100610000121092000228902C00600F040FCF8BD3B
:10062000A573E573256325747D200001606300F0E8
:100630003DFC2063012209209102C00600F02FFC3E
:10064000F8BD000000000020F8B50025002200924F
:1006500004462034227D012A39D001232375026803
:10066000966876076AD43A4F4E68BE4250D0966A72
:100670000F78BB401E4396620123C26A1B079A4251
:100680001FD0012A1DD0022A1BD0032A19D0042A08
:1006900017D0052A15D0062A13D0072A11D00268D0
:1006A0008B6856697607760FB3420AD05369DB0828
:1006B000DB005361006842690B7A5B075B0F1A43EA
:1006C00042610868102804D0112802D03BE00220C3
:1006D000F8BD204B9A68102807D0012080050243FE
:1006E0009A600868102803D02DE00120C005F6E7C5
:1006F0001A4819490068FFF7F3FC0A2148430090A3
:1007000002E00098401E009000980028F9D11AE0FD
:10071000906A0E78B340984390620868102801D020
:10072000112810D10B498A68102804D001208005B7
:1007300082438A6007E00120C005F9E7816B20222F
:10074000114381630125002020752846F8BD000073
:10075000011000000027014040420F00440000202B
:100760000068006C70470000F8B504460025002CB6
:1007700005D0A06B26462036002802D007E00120D5
:10078000F8BD0020E0633075204600F0BDF8A06B96
:100790001022C006002870DB2068816849076CD4ED
:1007A000A16B1301994302231943A163816889074F
:1007B000890F012905D10168C9070FD1C168090452
:1007C0000CD4C16818239943A3681943C1602068F9
:1007D0000169636889008908194301612068C1685B
:1007E0003D4B1940C160207E8103607EC003014300
:1007F000A07E43031943A36A012B02D001231B03EC
:1008000000E000231943E36819432369022B09D050
:100810000023194333795B001943E67E0123012E3F
:1008200002D00AE00423F4E7002827D0A06B20269A
:100830003043A063E06B1843E063E0690646FF3E87
:10084000C23E02D0266A304301432068C6680E4388
:10085000C6600126E06A3607B04213D0012811D0E5
:1008600002280FD003280DD004280BD0052809D06A
:10087000062807D0072805D010E027E00120000453
:100880000143DAE720684669F608F6004661206809
:100890004669A78D7F077F0F3E4346612068C06889
:1008A0000E4E3040884207D10020E063A06B8008E4
:1008B0008000401CA0630DE0A06B02218843104320
:1008C000A063E06B1843E063012503E0A06B1043D5
:1008D000A06301252846F8BD1902FEFFE7FF3F830C
:1008E00010B500680649884209D106488169421559
:1008F0009143816109203121C00600F07DF910BDCE
:10090000002401400010024010B586B004461421B6
:1009100001A8FFF743FC10492068884219D10F480D
:10092000826941150A43826182690A4000924269E4
:1009300009020A4342614069084000903120019059
:100940000320029000200390092001A9C00600F0B6
:10095000EBF906B010BD0000002401400010024079
:10096000F8B504460D4627466069203708280BD0A5
:100970002068C068C00709D0A06B20210843A0638D
:10098000002038750120F8BD082600E00C2600F094
:100990008DFA009015E0681C13D0002D05D000F0F2
:1009A00085FA0099401AA8420BD9206800683042A5
:1009B00007D1A06B04210843A063002038750320F1
:1009C000F8BD206800683042E5D0A06B01214902E3
:1009D0000843A0632068C16809058A0F0C21002A1A
:1009E0001AD1A27E002A17D10268120714D5826894
:1009F00001235207002A08DB42688A434260A06B49
:100A00001A0290431843A06306E0A06B2022104313
:100A1000A063E06B1843E063207E002801D12068CA
:100A200001600020F8BD000070B504460020216878
:100A30008968490723D425462035297D01291CD002
:100A400001212975617E012902D02046FFF79EFC15
:100A5000002811D1A16B0B4A1140FF220132114332
:100A6000A1630021E163297522681C2111602168BE
:100A70008A6804231A438A6070BD022070BD022078
:100A800070BD0000FEF1FFFF10B50446002C03D03E
:100A9000607D002802D006E0012010BD00202075F6
:100AA000204600F02DF8022060752079002814D02F
:100AB0002168A06808612068816860229143E2682B
:100AC000114381602068816880229143226911432B
:100AD000816001206075002010BD00202168C043A6
:100AE0000861E8E700680449884204D10348416985
:100AF00040229143416170470030024000100240A3
:100B000008B500680549884207D105484269402177
:100B10000A43426140690840009008BD003002402D
:100B20000010024030B5014620314A780023022AE5
:100B300004D0042282630B70012030BD0268146867
:100B40000E25AC43146002681468640864001460E5
:100B50000125046C2A46C06BA24042604D700B70A8
:100B6000002030BD70B50024014620314A78022AA9
:100B700003D004218163012416E0026813680E2566
:100B8000AB431360026813685B085B0013600125C8
:100B9000036C2A469A40C36B5A604D7000220A705B
:100BA000416B002900D08847204670BD806B70479C
:100BB00010B500210648C943016100220261C160ED
:100BC000C2608162826200F0B3F9002010BD0000B3
:100BD0000010024070B5044600F068F90546601C3C
:100BE00002D004480078241800F060F9401BA042AD
:100BF000FAD370BD38000020F0B5002254E0012384
:100C000093409E460B40002B4DD09508284CAD00DC
:100C10002D19AC689607370F0F26BE403440A44606
:100C20000924E406A04201D100240FE0214CA04297
:100C300001D101240AE0204CA04201D1022405E0A8
:100C40001E4CA04201D1032400E00524BC406445B1
:100C50000FD11B4C27689F43276067689F436760DD
:100C6000E7689F43E760A7689F43A760AB68B3430B
:100C7000AB60046855000323AB409C430460D40878
:100C8000A4002418266A5507EF0E0F25BD40AE4379
:100C90002662C4689C43C46044687546AC434460A3
:100CA00084689C438460521C0B46D340A7D1F0BD9E
:100CB000000001400004004800080048000C004803
:100CC0000004014010B502281CD10F4CE078002828
:100CD00005D1092000228021C00600F0E0F86078EC
:100CE000002802D1A07800280CD0E078002809D193
:100CF000064800F095FD0549002009684862034850
:100D000000F066FD10BD000000000020A4000020DF
:100D100010B504494A69024202D04861FFF7D2FF88
:100D200010BD000000040140F8B5002295E0012745
:100D300097403B40002B7DD00C79A407A40F012CD9
:100D400001D0022C10D1856854000326A640B5437B
:100D5000CE68A6402E4386604468BC430D79ED06FC
:100D6000ED0F9540254345600C79E443A40708D076
:100D7000C56854000326A640B5438E68A6402E439E
:100D8000C6600C79A407A40F022C0CD1D408A400CF
:100D900027183D6A5407E40E0F26A640B5430E6996
:100DA000A6402E433E62056854000326A640B54384
:100DB0000E79B607B60FA6402E4306604C68A40312
:100DC000A40F49D0284CA56901263543A561A46923
:100DD000344000949508254CAD002F19BD68940748
:100DE000240F0F26A640B5430926F606B04201D1CE
:100DF00000260FE01E4EB04201D101260AE01D4E32
:100E0000B04201D1022605E01B4EB04201D10326BB
:100E100000E00526A6402E43BE60184DAC689C43FA
:100E20004E68F60200D51C43AC60EC689C434E68EB
:100E3000B60200E010E000D51C43EC606C689C43F7
:100E40004E68B60300D51C436C602C689C434E680A
:100E5000F60300D51C432C60521C0B681C46D44082
:100E600000D064E7F8BD000000100240000001401F
:100E70000004004800080048000C0048000401403D
:100E80000069084201D00120704700207047426984
:100E900013460B401B0491430B4383617047002AA8
:100EA00001D081617047816270470000014880680D
:100EB00070470000380000200248816802788918D5
:100EC000816070473800002010B506480168102284
:100ED00011430160032000F007F800F02BF8002018
:100EE00010BD00000020024070B504460E4D7D206C
:100EF0002978C000FFF7F4F801460C480068FFF7B6
:100F0000EFF800F0F9FB002801D0012070BD042C9F
:100F100007D200222146501E00F03CF86C600020F1
:100F200070BD012070BD000038000020440000208A
:100F30007047000008B508488169012211438161AA
:100F4000816911400091C26901040A43C261C0690C
:100F50000840009008BD000000100240002809DB96
:100F6000C106C90E0120884003490860BFF34F8FB6
:100F7000BFF36F8F7047000080E100E0002805DBC1
:100F8000C106C90E01208840014908607047000071
:100F900000E100E010B502F087F810BDBFF34F8FFD
:100FA00004490348C860BFF34F8F00BFFDE700004E
:100FB0000400FA0500ED00E0F8B504462068374D5E
:100FC000C00356D50026E869C00007D4E8692904A3
:100FD0000843E861E869084000900126304801684C
:100FE000C90513D4014608688A1510430860FFF745
:100FF0005DFF074606E0FFF759FFC01B642801D9D3
:101000000320F8BD26480068C005F4D5286A0321EE
:101010000902084000281FD062680A4082421BD0A3
:10102000286A88432A6A012109040A432A622A6A33
:101030008A432A622862C0070ED0FFF737FF0746AF
:1010400007E0FFF733FFC11B1648814201D9032097
:10105000F8BD286A8007F4D5286A0321090288436D
:10106000616808432862012E03D1E869310788438B
:10107000E8612078C00705D0286BA168800880004F
:10108000084328632078800605D5286B1021884303
:10109000E168084328630020F8BD0000001002400A
:1010A0000070004088130000F8B504460D46002C7F
:1010B00012D040480068C007C00FA8420ED23D4879
:1010C000016849084900294301600068C007C00F52
:1010D000A84203D00120F8BD0120F8BD2068364E9B
:1010E00081070CD5400704D5716807200002014331
:1010F00071607068F0218843A168084370602078AF
:10110000C0072BD06068012806D0022809D03168BA
:1011100089070BD40120F8BD3168890306D401206A
:10112000F8BD3168890101D40120F8BD71688908D2
:10113000890001437160FFF7B9FE074607E0FFF73A
:10114000B5FEC11B1D48814201D90320F8BD70685E
:101150000C210840616889008842F0D11548016877
:10116000C907C90FA9420BD9016849084900294399
:1011700001600068C007C00FA84201D00120F8BD7F
:101180002078400706D57068072109028843E16886
:101190000843706000F02EF87168094A0906090FCB
:1011A000515CC840074908600320FFF79DFE0020FE
:1011B000F8BD00000020024000100240881300002B
:1011C000A036000844000020014800687047000075
:1011D0004400002000B5FFF7F7FF04494968044ABE
:1011E0004905490F515CC84000BD00000010024095
:1011F000B036000810B5114A53680C20194601405A
:101200000F48042914D0082912D199020D4C090F56
:10121000645CD16A0B4A0907090F1032525CD9038A
:1012200007D500231946FEF771FF214601F016FF8E
:1012300010BD2046044901F011FF10BD001002400E
:1012400000127A008036000800093D00FEB5044611
:10125000002C0ED02078FF4DC0075FD068680007D3
:10126000800F01280AD068680007800F022802D08A
:101270000CE00120FEBD6868C00307D52868800324
:101280004CD56068002849D10120FEBD6068012866
:1012900013D001218904002815D005281CD02A6804
:1012A000881082432A602868884328606068002884
:1012B00026D0FFF7FBFD06461EE028680121090441
:1012C00008432860F2E7286801221204904328604E
:1012D000286888432860E9E7286808432860296867
:1012E0000120000401432960E0E7FFF7DFFD801BD8
:1012F000642801D90320FEBD28688003F5D50DE0E0
:10130000FFF7D4FD064606E0FFF7D0FD801B6428FA
:1013100001D90320FEBD28688003F5D4207801267A
:101320008007002849DA68680007800F07D06868DE
:101330000007800F022812D16868C0030FD4286804
:10134000800704D5E068012801D00120FEBD28688F
:10135000F82188432169C900084328602DE0E0682E
:10136000002818D0286830432860FFF79FFD074603
:1013700006E0FFF79BFDC01B022801D90320FEBD3C
:1013800028688007F5D52868F82188432169C900B5
:101390000843286011E02868400840002860FFF7F3
:1013A00085FD074606E0FFF781FDC01B022801D935
:1013B0000320FEBD28688007F5D42078000726D5D5
:1013C000E069002811D0686A30436862FFF76EFD5B
:1013D000074606E0FFF76AFDC01B022801D903207B
:1013E000FEBD686A8007F5D511E0686A40084000D4
:1013F0006862FFF75BFD074606E0FFF757FDC01B7D
:10140000022801D90320FEBD686A8007F5D4207840
:1014100004274007002871DA00200190E869C00025
:1014200008D4E969B8060143E961E969014000911E
:101430000120019088480168C90513D4016882150C
:1014400011430160FFF732FD029007E0FFF72EFD28
:101450000299401A642801D90320FEBD7E48006825
:10146000C005F3D5A068012811D0002813D00528A5
:1014700019D0286A400840002862286AB8432862C8
:10148000A068002823D0FFF711FD02901BE0286A16
:1014900030432862F4E7286A400840002862286A3E
:1014A000B8432862ECE7286A38432862286A304348
:1014B0002862E5E7FFF7FAFC0299411A6748814282
:1014C00001D90320FEBD286A8007F3D50FE0FFF79E
:1014D000EDFC029008E0FFF7E9FC0299411A5F4831
:1014E000814201D90320FEBD286A8007F3D4019808
:1014F000012803D1E96900078143E9612078C0062A
:1015000040D5606901280CD0401D26D0686B384357
:101510006863686B400840006863FFF7C7FC0646D5
:101520002DE0686B38436863686B30436863FFF78E
:10153000BDFC064606E0FFF7B9FC801B022801D976
:101540000320FEBD686B8007F5D5696BF8208143E9
:10155000A069C0000143696314E0686BB843686325
:10156000686BF8218843A169C9000843686309E0F2
:10157000FFF79CFC801B022801D90320FEBD686B8D
:101580008007F5D4206A00286CD069680907890FA4
:10159000022947D001273F06022806D02868B84311
:1015A0002860FFF783FC044638E02868B8432860C9
:1015B000FFF77CFC064606E0FFF778FC801B02285C
:1015C00001D90320FEBD28688001F5D4E86AE16AEC
:1015D000000900010843E862616AA06A084369687B
:1015E0003D2212049143084368602868384328600C
:1015F000FFF75CFC044606E0FFF758FC001B0228DE
:1016000001D90320FEBD28688001F5D52AE0FFF747
:101610004DFC001B022801D90320FEBD2868800173
:10162000F5D41FE001281BD06868E96A0122120482
:10163000636A02409A420AD10907E26A090F91429D
:1016400005D10F2189040840A16A88420AD00120EF
:10165000FEBD000000100240007000408813000032
:101660000120F5E70020F3E7F8B504460D461646DD
:101670001F46002C03D0E06F002802D007E00120B5
:10168000F8BD002178200155204600F0A1FB242060
:10169000E06720680168490849000160606A002825
:1016A00002D0204601F0A2F9204601F087FB012874
:1016B0001DD0206881680122920311438160206857
:1016C00081685200914329438160700539040143C8
:1016D00020680268074B1A400A43026020680168CC
:1016E000012211430160204601F0E6F9F8BD012016
:1016F000F8BD0000FFFF00FC10B50949401E8842FC
:1017000001D9012010BD074C60610321081F01F0C1
:10171000CBFC0020A06107202061002010BD00004C
:10172000FFFFFF0000E000E07047704770B504461F
:10173000002C05D025462035687F002802D006E021
:10174000012070BD00202877204600F027F80220F5
:101750006877211D206801F005F901224034A2714B
:10176000AA77EA7722706270A270E27022716271C9
:101770006A77002070BD000010B5006805498842F6
:1017800007D10548C16982159143C1611320FFF754
:10179000E5FB10BD002000400010024008B50068C5
:1017A000094988420FD10948C26981150A43C261BB
:1017B000C06908400090002211461320FFF7EAFBA1
:1017C0001320FFF7DBFB08BD0020004000100240A3
:1017D000014620314A7F012A01D0012070470222B0
:1017E0004A770168CB6801221343CB6000680A493D
:1017F000884202D00949884208D181684907490FC7
:10180000062906D001681143016002E00168114316
:101810000160002070470000002C014000040040DF
:101820000168CA6852085200CA6001680A6A084B17
:101830001A4207D10A6A9B101A4203D10A68520859
:1018400052000A60012120304177002070470000DB
:10185000111100007047F8B504462068C568066994
:101860000027B107002914DAA90712D5F91E016172
:101870000120207720688069800703D02046FFF789
:10188000E9FF05E0204600F07EF8204600F07CF8F5
:101890002777700717D5680715D504202168C0433E
:1018A000086102202077206880698005800F03D0BE
:1018B0002046FFF7CFFF05E0204600F064F8204601
:1018C00000F062F82777300716D5280714D50820CE
:1018D0002168C0430861042020772068C069800720
:1018E00003D02046FFF7B6FF05E0204600F04BF896
:1018F000204600F049F82777F00617D5E80615D5F9
:1019000010202168C0430861082020772068C06942
:101910008005800F03D02046FFF79CFF05E020469E
:1019200000F031F8204600F02FF82777F00708D0B4
:10193000E80706D001202168C0430861204600F076
:1019400025F8300608D5280606D580202168C04332
:1019500008612046FFF7E8FE700608D5680606D540
:1019600040202168C0430861204600F057F8B006C7
:1019700008D5A80606D520202168C0430861204666
:10198000FFF7D3FEF8BD70477047000070B52149DE
:1019900001200968C04308611F4CE169491CE161ED
:1019A000628B09260020F6060125914202D3E279D6
:1019B000002A10D050290DD3217A00290AD1E061E4
:1019C000E07125721348FFF72BFF0022802130467B
:1019D000FFF765FA70BDE571207201228021304663
:1019E000FFF75DFAA078002808D0608B4B2803D25F
:1019F000608B401C608370BDE57070BD607800280E
:101A0000FBD0608B052803D9608B401E608370BDBE
:101A1000E57070BDA40000200000002070477047F2
:101A2000F8B50446EFF31081012080F31088206898
:101A30000268FF2321339A43026081F31088EFF399
:101A40001081012080F310882068826852085200BB
:101A5000826081F31088206E1027012809D1EFF3EE
:101A6000108180F3108820680268BA43026081F315
:101A7000108820688168254649068035002600299F
:101A800018DAEFF31081012282F310888268402374
:101A90009A43826081F31088606F00280AD0466301
:101AA000606FFFF73FF8002804D0606FFFF77EF803
:101AB00020280ED05A20065321680F200862206883
:101AC0008169082211438161202028602666002058
:101AD000F8BD6F600320F8BD10B50C480121026805
:101AE0001162026802211162026804211162026817
:101AF000102111620068082101620448FFF790FF7D
:101B000001220349014800F09BF910BDEC000020C0
:101B10000C000020F8B504462268D069116893686B
:101B20009C4D06462E40002E09D1850607D58D0610
:101B300005D5A16E002901D020468847F8BD25466D
:101B40008035002E7FD0944FDE07F60F0F403743CD
:101B500079D0C70706D0CF0504D5012717626A6878
:101B60003A436A60820708D5DA0706D0276802225E
:101B70003A626A6804273A436A60420708D5DA077E
:101B800006D0236804221A626A6802231A436A6034
:101B9000020709D520220A40324305D023680822D3
:101BA0001A626B6813436B60020509D54A0107D5B9
:101BB00001222368D2021A626A6820231A436A60EB
:101BC0006A68002ABAD0800606D5880604D5A16EB8
:101BD000002901D02046884768682168896849063D
:101BE00002D42821084228D0204600F0D3FF2068E4
:101BF000816849061DD5EFF31081012282F3108818
:101C0000836840229343836081F31088606F0028CB
:101C10000BD062494163606FFEF7A4FF00288DD0AE
:101C2000606F416B8847F8BD0DE02046FFF754FF19
:101C3000F9E72046FFF750FFF5E72046FFF74CFF96
:101C400000206860EFE7236E012B7DD1C3067BD5B2
:101C5000CB0679D510231362206881682646490691
:101C6000403600294BDA626F1168496889B2002951
:101C7000D9D0378B8F42D6D971839169202934D03E
:101C8000EFF31081012282F3108802681F01BA432A
:101C9000026081F31088EFF31081012080F3108837
:101CA0002068826852085200826081F31088EFF346
:101CB0001081012080F31088206882684027BA4391
:101CC000826081F310882020286000202066EFF3D6
:101CD0001081012080F31088206802689A43026016
:101CE00081F31088606FFEF71DFF02206066308B65
:101CF000718B401A81B22046FFF791FE93E7318B3A
:101D0000728B891A89B2728B002A8CD000298AD0F2
:101D1000EFF31082012686F310880668FF2721372B
:101D2000BE43066082F31088EFF31082012080F337
:101D300010882068866876087600866082F31088AE
:101D400020202860002000E012E02066A066EFF36B
:101D50001082012080F31088206805689D4305608B
:101D600082F31088022060662046FFF758FE5AE78B
:101D7000020607D50A0605D5E16E0029BED0204629
:101D8000884750E74006B9D54806B7D5204600F049
:101D900030FF48E70F08000020010004812B0008F5
:101DA00010B50068084988420DD1084881690122B0
:101DB00092039143816109200E21C006FEF71CFFAA
:101DC0001B20FFF7CBF810BD003801400010024087
:101DD00010B586B00446142101A8FEF7DFF91649B4
:101DE0002068884226D115488269012189030A4367
:101DF000826182690A4000924269C9000A434261D5
:101E00004069084000900E200190022002900020BE
:101E100003900320049001200590092001A9C00629
:101E2000FEF782FF002201211B20FFF7B3F81B20E1
:101E3000FFF7A4F806B010BD0038014000100240C2
:101E400070B580231B58202B01D0022070BD0029C3
:101E50000AD0002A08D0012483682403A34209D1B0
:101E60000369002B02D005E0012070BDCB0701D033
:101E7000012070BD0023036603685C6824020BD553
:101E8000EFF31084012585F310881D680126B6063E
:101E900035431D6084F3108801F026F870BD000002
:101EA00010B50848017B084800F056FA0549064875
:101EB00001220C318838FFF7C3FF002801D0FEF75C
:101EC000BDFA10BD0000002074010020FFB583B0F2
:101ED00004460E461546E06F202802D0022007B0C7
:101EE000F0BD002E0AD0002D08D00120A16800030B
:101EF000814209D12069002802D005E00120EEE7E7
:101F0000F00701D00120EAE70021842001512120BF
:101F1000E067FEF7CBFF0290274640373D827D8287
:101F20000120A1680003814202D12069002802D06B
:101F30003546002618E0002516E00698009000229D
:101F400080212046029B01F031F8002803D0202098
:101F5000E0670320C3E7002D17D0287821686D1CA7
:101F60000885788A401E7882788A0028E5D106980C
:101F70000090002240212046029B01F017F8002823
:101F80000AD02020E0670320A9E73088B61CC005EE
:101F90002168C00D0885E4E72020E06700209EE767
:101FA0007047FEE710B5094807490160002101713B
:101FB000C160016101218161FEF766FD002801D049
:101FC000FEF73CFA10BD00000030024088000020FF
:101FD0007047FEE77047704710B5FEF76DFF10BD04
:101FE00070470000020A484000060249C00D085A26
:101FF0005040704780340008704700207047704799
:102000000000000000000000320111410000000843
:102010003EB5002400940194029420481E490160BA
:1020200044608460C460046104254561047644769C
:102030008476C476FF21C231C16104620146203139
:102040000C7101218162FEF78FFB002801D0FEF7A1
:10205000F5F90094012000030190022002906946E6
:102060000E48FEF7F1FA002801D0FEF7E7F90095D7
:1020700069460A48FEF7E8FA002801D0FEF7DEF9C3
:102080000520009069460548FEF7DEFA002801D0D9
:10209000FEF7D4F93EBD00000024014048000020B6
:1020A000F0B587B0142102A8FEF778F826484269F7
:1020B000012189050A43426142690A40019242694D
:1020C00049110A43426142690A400192426949004A
:1020D0000A43426140690840019013270926BF0165
:1020E000F606002239463046FEF7D9FE032002905C
:1020F000002403940125049502A91448FEF714FE58
:10210000029703950494059402A93046FEF70CFE4D
:1021100002250295112000040390049402A90C48A2
:10212000FEF702FE280202900394049502A93046AD
:10213000FEF7FAFD002211460520FEF72BFF0520D1
:10214000FEF71CFF07B0F0BD00100240001400486D
:102150000004004810B509480749016000214160AA
:102160008160074AC26001618161FFF7DFFA0028E0
:1021700001D0FEF763F910BD00200040A40000204C
:10218000BF12000010B51248104901604B214902EE
:10219000416000218160C16001610C224261816166
:1021A000C1610162416200231A461946FFF75CFAD9
:1021B000002801D0FEF742F9012206490448FFF742
:1021C0003FFE002801D0FEF739F910BD003801406C
:1021D000EC0000200C00002010B50D4C20780028E9
:1021E0000ED100210B4800F0A4FA20700A4A3921D0
:1021F000084800F08FF9094A2821064800F08AF9BA
:102200000349044801220C318838FFF719FE10BD3C
:1022100000000020740100209922000821220008FB
:10222000FEB500224D681B4C2B78E67AB34216D1DE
:102230006E780127A13E330000F028FF0504070552
:10224000080B11000122A77109E001220023A371EC
:1022500005E0A522AB781202D21862820122002A80
:1022600016D0627B6B461A70627A5A70A28A150A7F
:102270009D70DA70E28A150A1D715A71228B140A58
:102280009C71DA716A464A6008220A8100F06DFA90
:102290000120FEBD000000207CB54A6813780E4A7C
:1022A000D47AA34216D1537B6C462370537A637061
:1022B000938A1D0AA570E370D38A1D0A2571637184
:1022C000128B130AA371E2716A464A6008220A81DE
:1022D00000F04BFA01207CBD0000002070B594B0E6
:1022E000302108A8FDF75AFF0024049405940694B1
:1022F000079400940194029403941A2008900125F5
:102300000B950D9510200C900E900F9502261096AF
:1023100011940520C0041290139408A8FEF796FFAC
:10232000002801D0FEF78AF807200490059606944D
:102330000794012104A8FEF7B7FE002801D0FEF79C
:102340007DF8009502946846FEF736FE002801D01D
:10235000FEF774F814B070BDF8B505460E46A889AE
:10236000322805D3A87A002802D0284600F0FAF9CE
:102370000027AF81A87A012189026C18030000F0C0
:1023800085FE07051D440B30708A0A00012E02D11C
:10239000284601F063F8F8BDA08A3146FFF722FE17
:1023A000A082A87B00023043A873608A401C80B2E0
:1023B00060820128EFD1A8726782F8BDA08A3146F9
:1023C000FFF710FEA082287C000230432882608A3A
:1023D000401C80B260820228EFD10420A87267827C
:1023E000F8BDA08A3146FFF7FDFDA082207E0002E5
:1023F00030432076608A401C80B260820128EFD191
:102400000220A8726782E782F8BDA07D00023043F7
:10241000E082608A401C80B260820228F4D10E46BD
:10242000A08AFFF7E9FDA082E18A884203D028460E
:1024300000F098F9F8BD288A00280BD00520A87272
:102440006782FFF7DAFDA082288AB042F2D9012024
:102450006076F8BD284600F0DEF8284600F082F9E4
:10246000F8BD607E002803D0608A401C608209E0CD
:10247000A08A3146FFF7B6FDA082608A411C6182C6
:1024800040198674608A298A8842E9D10620A87298
:102490006782E782F8BDA07D00023043E082608A57
:1024A000401C80B260820228F4D1A08AFFF7A4FD0C
:1024B000A082617E002905D1E18A884202D12846A6
:1024C00000F0A9F8284600F04DF9F8BDF0B5002459
:1024D0009526F600142565432D18AD196F68002F59
:1024E00005D0641CE4B2142CF4D30020F0BD6A6063
:1024F0000A782A70CA68EA60096929612B816B81B0
:10250000372149014018017BA14201D8641C0473A2
:102510000120F0BD70B50023C725ED00DC002418B4
:1025200064196668002E05D05B1CDBB2142BF5D352
:10253000002070BD62602170372149014018417B45
:10254000994201D85B1C4373012070BD25214901CC
:1025500040188179002901D0002070470121817144
:1025600001207047F7B504460D460026FFF745FDEC
:1025700002984078002802D00298077809E0607A33
:10258000411C470661727F0E207A002801D080200E
:10259000074302980770FFF730FD01210C462970B0
:1025A000FFF720FDF2003946D1402246641CA954B1
:1025B000FFF718FD761E76B2002EF3DA0126029997
:1025C000F2000989D140C9B22246641CA954FFF720
:1025D00009FD761E76B2002EF1DA00260299F2008D
:1025E0008978D1402246641CA954FFF7FBFC761E73
:1025F00076B2002EF2DAFFF7FFFC02460120C3009C
:102600001146D9402346641CE954401E40B20028BC
:10261000F5DA2046FEBDF0B585B0054668461421C2
:10262000FDF7BCFDA87B69460870002048700120BA
:1026300080022818007E8870284612300190288A6F
:1026400008810026372040012F182EE01420704307
:1026500095214019C90044186068002823D06946B4
:102660002078097888421ED1E068039020690490A0
:1026700062686946284690470399E16004992161A0
:10268000002810D002280BD0032807D10020E060DA
:10269000206122463146284600F041FD05B0F0BDDC
:1026A00060892081FAE7761CF6B2387BB042CDD83B
:1026B00000200390049000241BE0E0004119C72093
:1026C000C0000E187268002A11D0694630788978E7
:1026D00088420CD1694628469047002807D0032835
:1026E000DCD132462146284600F03BFDD6E7641C8B
:1026F000E4B2787BA042E0D8002416E0A0004119A3
:10270000DB20C0000E183268002A0CD0694628462B
:102710009047002807D00328C0D1324621462846DA
:1027200000F0F2FCBAE7641CE4B2B87BA042E5D842
:10273000B4E7F8B504460F46002C0BD06568266850
:102740006F2109012046FDF729FD6560266027728B
:102750000120F8BD0020F8BD25220021520180187B
:102760008171704700218172704710B501224A7053
:1027700000F001F810BD10B500231A4600F001F872
:1027800010BD70B505460C462146284600F014F8E9
:1027900000280ED02289002A02D06068002806D0C6
:1027A0002846616800F038F8284600F083F80120D8
:1027B00070BD002070BD0000FFB581B005460E461B
:1027C00017462846FFF7C2FE00281CD011483246A3
:1027D00029182846FFF7C6FE01460920C0012C181B
:1027E000E16130892062002F07D03A463146284601
:1027F000049BFFF76BFE002807D0FFF7FEFBA084C9
:10280000012005B0F0BD0020FBE72846FFF7A4FF3C
:102810000020F6E71A040000F7B588B0164600203D
:1028200005902348089A09211018C90157180790E4
:102830003AE0F9698020401AB04200D33046069051
:102840000798081801900599099840180290069871
:10285000174980B2039008988A31401804900024E8
:1028600000250DE00298015D2846019A6D1C115467
:1028700004980088FFF7B6FB04990880641CA4B292
:1028800003988442EED3F8692A18FA610698361A3A
:102890000699059840180590802A05D1079908984F
:1028A00000F044F80020F861002EC2D10BB0F0BD5A
:1028B0001A040000F1B582B009210298C901451837
:1028C00019492A6A4718002A25D0EA698020801A07
:1028D000022805D23946029800F028F80020E86165
:1028E000E8691149C019019002988A3146180024FC
:1028F0003088FFF781FB308001203188C200D14051
:102900002246019B641C9954401E40B20028F4DA10
:10291000E8692018E8613946EA69029800F006F88B
:102920000298FFF719FFFEBD1A04000010B592B21D
:102930002D230648FFF7CAFA0448C16F2029FCD1AD
:10294000012203490148FFF77BFA10BDEC0000208B
:102950000C00002010B50248FEF77DFF10BD0000FE
:10296000A400002070B502681B4B1C4E984201D099
:10297000B04203D17024A2434C682243184C194D35
:10298000984208D0B04206D0174EB04203D0A042C1
:1029900001D0A84204D103263602B243CE683243A6
:1029A0008026B2434E69324302608A68C2620A6876
:1029B0008262984203D0A04201D0A84201D10969A5
:1029C0000163012141610169C90703D00169490817
:1029D0004900016170BD0000002C0140000400406E
:1029E00000440140004801400020004010B5818CA7
:1029F000090707D501684A680123DB039A43436B43
:102A00001A434A60818CC90707D001684A680123CC
:102A10005B049A43836A1A434A60818C890707D50D
:102A200001684A6801231B049A43C36A1A434A6037
:102A3000818C490707D501684A6801239B049A43A2
:102A4000036B1A434A60818CC90607D501688A68FE
:102A500001231B039A43836B1A438A60818C890686
:102A600007D501688A6801235B039A43C36B1A4345
:102A70008A60818C490612D501684B6801221205D3
:102A8000046C934323434B60016C914207D101686E
:102A90004A6803235B059A43436C1A434A60818C5E
:102AA000090607D501684A680123DB04806C9A4354
:102AB00002434A6010BD0000FEB5044626460027CA
:102AC00080367760FEF7F2F90190206800682546AD
:102AD0000007603500281BDA2848009001210022F9
:102AE00049052046019B00F061FA002810D0EFF361
:102AF0001081012080F310882068026880239A43A7
:102B0000026081F310882020E0672F760320FEBD4D
:102B100020680068400728D518480090012100224D
:102B200089052046019B00F041FA00281DD0EFF3F3
:102B30001081012080F3108820680268FF23213370
:102B40009A43026081F31088EFF31081012080F333
:102B500010882068826852085200826081F31088D1
:102B6000202030602F760320FEBD2020E0673060FB
:102B7000276667662F760020FEBD0000FFFFFF017D
:102B800010B5406A0022014640314A834A82FEF76E
:102B9000A3FF10BD10B5EFF31082012181F310885F
:102BA00001680B68FF242134A3430B6082F3108873
:102BB000EFF31082012181F3108801688B685B08B4
:102BC0005B008B6082F31088016E01290AD1EFF35C
:102BD000108281F3108801680B681024A3430B60F6
:102BE00082F31088202280210A500021016681662C
:102BF00010BD10B5EFF31082012181F31088016838
:102C00000B684024A3430B6082F310882021C16726
:102C10000021C166FFF7C4F910BD70B5014640310F
:102C20008B8B02468032156814460268222D04D030
:102C3000906908210843906170BD928C456D1A40DF
:102C40002A80426D921C42654A8B521E4A834A8BEF
:102C5000002AF1D1EFF31083012282F31088026879
:102C60001568FF262136B543156083F31088EFF30E
:102C70001083012282F31088026895686D086D0048
:102C8000956083F3108820222260002484664466C5
:102C9000026853681B020BD5EFF31083012585F3FF
:102CA000108815680126B606B543156083F31088B1
:102CB000026E012A02D0FFF7F3F870BD0466EFF34D
:102CC0001083012282F31088026815681024A5433E
:102CD000156083F310880268D369DB43DB0600D4F8
:102CE0001462098BFEF79BFE70BD70B50146403142
:102CF0008B8B02468032156814460268222D04D060
:102D0000906908210843906170BD928C1A40436D10
:102D10001A70426D521C42654A8B521E4A834A8B7E
:102D2000002AF1D1EFF31083012282F310880268A8
:102D30001568FF262136B543156083F31088EFF33D
:102D40001083012282F31088026895686D086D0077
:102D5000956083F3108820222260002484664466F4
:102D6000026853681B020BD5EFF31083012585F32E
:102D7000108815680126B606B543156083F31088E0
:102D8000026E012A02D0FFF78BF870BD0466EFF3E4
:102D90001083012282F31088026815681024A5436D
:102DA000156083F310880268D369DB43DB0600D427
:102DB0001462098BFEF733FE70BD000070B5044647
:102DC0000025A1682069E26901436069104301435D
:102DD00020680268404B1A400A430260206841683C
:102DE000032212039143E26811434160A069216A02
:102DF0000143206882680B231B029A430A438260C6
:102E00003648006B8007800F2CD001282ED0022876
:102E10002ED0032828D010210120E369C003304AB6
:102E2000304E834230D1002924D0022925D00429F4
:102E300025D0082901D000200125002846D061684E
:102E400040004A088018FDF74BF901461039B1429D
:102E500018D82449491C01400007420F0A43206842
:102E6000C26033E00021D7E70221D5E70421D3E790
:102E70000821D1E7FEF7AEF9DFE71046DDE7FEF700
:102E8000B9F9DAE7012521E0002916D0022917D087
:102E9000042917D0082901D000200125002815D0C9
:102EA00061684A081018FDF71BF901461039B14254
:102EB0000BD8216880B2C86008E0FEF78BF9EDE717
:102EC0001046EBE7FEF796F9E8E701250020A0663B
:102ED000E066284670BD0000F369FFFF0010024065
:102EE00000127A00EFFF000030B541650146403125
:102EF0000A834A8300238366012482682403FF2512
:102F0000A24207D10269002A01D08D8305E0244A3C
:102F10008A8302E0002A2AD08B83014680314B60ED
:102F200022220A60EFF31082012181F310880168E8
:102F30008B6801252B438B6082F310888168A14246
:102F400002D1016900291AD0164981660169002958
:102F500018D0EFF31081012282F310880068026814
:102F6000FF2321331A43026081F3108816E00269BF
:102F7000002A02D07F228A83CFE78D83CDE70A49DA
:102F80008166E3E7EFF31081012282F31088006885
:102F9000026820231A43026081F31088002030BDAC
:102FA000FF010000EB2C00081B2C0008FFB581B0CE
:102FB0000A9E04460D462746803720466030009022
:102FC00036E0701C34D0FDF771FF0499401AB0420E
:102FD0001AD8002E18D020680168490728D5802DFE
:102FE00026D0402D24D0C169C94309070ED42068DA
:102FF000082505622046FFF7CDFD7D600099002081
:103000000876012005B0F0BD0320FBE7C069C0438E
:1030100000050DD401202168C00208622046FFF798
:10302000B9FD202078600099002008760320E9E7A8
:103030002068C1692846884305D00020039988424A
:10304000BFD00020DEE70120F8E7000010B50248FD
:10305000FEF760FD10BD0000EC000020F8B5040C88
:103060008BB2264682B25E430D0C1046370C584395
:10307000360480190021794116466E43370C360418
:103080008019794126466E438919F8BD30B47446DB
:10309000641E2578641CAB4200D21D46635D5B0054
:1030A000E31830BC184700008307FF22DB0E9A406C
:1030B0008907090E9940002808DB830809489B000E
:1030C0001818036893430B43036070470007000F11
:1030D0000838830804489B001818C36993430B43BE
:1030E000C361704700E400E000ED00E002E008C8C2
:1030F000121F08C1002AFAD17047002001E001C167
:10310000121F002AFBD1704700231360372252019F
:103110008018827B521E8A4200D182737047F0B5BC
:1031200085B006460F4614466068002817D0E06850
:103130000025002802D12169002907D003902069C9
:103140000490019562686946304690476560372073
:1031500040013018017B491EB94200D1017305B00E
:10316000F0BD00235360372252018018427B521E6B
:103170008A4200D142737047FDF7A6FEFFF7AEF812
:10318000FEF78EFFFEF744FFFEF722FFFEF7FAFF81
:10319000FEF708FFFEF7DEFFFFF71EF80126052702
:1031A0000025AB4CFDF728F82079002800D0677285
:1031B000607A0300FFF76AFF06054D92C5FDFC0427
:1031C000F0E7FF20F530FDF705FDE5720121A1488C
:1031D000FDF756FE002802D1E07A3043E07202216A
:1031E0009C48FDF74DFE002803D1E07A02210843F8
:1031F000E072012209209102C006FDF750FE09206D
:1032000000224021C006FDF74AFE0920002280214D
:10321000C006FDF744FEE07A8F494843E062FF2094
:10322000F530FDF7D7FC607B3043DF2108404006D6
:10323000400EBF21084060736672E5712572A5716A
:103240006570A570E570A573E573256325746563E6
:10325000A8E7607BFD21084030436073A06A002826
:103260000AD1A07900280ED1012109204902C00607
:10327000FDF706FE012806D0A06A002810D0A0792C
:10328000002804D00CE0FDF711FEA06208E0012147
:1032900009204902C006FDF7F3FD002800D1A56210
:1032A000A06A00288CD0FDF701FEA16A401AE16AED
:1032B000884285D30121092000228902C006FDF73A
:1032C000EEFDFDF7F3FD6062022060724B2060832B
:1032D000E57125726670A570E57063E7607B022179
:1032E000084330436073A079002806D10920090201
:1032F000C006FDF7C5FD00281AD0E07800280DD0E3
:10330000607900280AD0092001224021C006FDF77B
:10331000C6FDFDF7CBFD606203206072FDF7C6FDC0
:10332000616A411A7D200001814291D3677239E7B9
:10333000FDF7BCFD6062042060726570A670E570E8
:10334000ECE7607B0221084330436073A0790028DA
:1033500018D109200902C006FDF792FD002811D1FD
:10336000FDF7A4FD60626783042060726570A6703B
:10337000E5701420FDF72EFC092000224021C00634
:10338000FDF78DFD607800280BD0E078002808D08C
:10339000FDF78CFD616A401A142802D36570A57090
:1033A000E5706079002898D1607B2021084301E016
:1033B00023E002E060736772F4E6607BFD21084061
:1033C00030436073E07800280DD00122092091027B
:1033D000C006FDF764FDFDF769FD60626672A571C8
:1033E0006570A570E570FDF761FD616A411A7D2089
:1033F000000181429BD36772D4E6E570A5706570C9
:10340000607BFD21084040084000607309200022D5
:103410004021C006FDF743FD092000228021C0069F
:10342000FDF73DFDA07900280ED1012109204902B8
:10343000C006FDF725FD002806D1607B410603D4B8
:10344000000601D425716572FDF710F8AAE60000A8
:103450000000002000140048B80B000070B50546BD
:10346000FEF7CBFD012189026C18A0820121FEF735
:10347000B9FDA082002060760321A972608270BD30
:103480000000C1C081C1400101C3C003800241C22C
:1034900001C6C006800741C70005C1C581C44004FC
:1034A00001CCC00C800D41CD000FC1CF81CE400EAC
:1034B000000AC1CA81CB400B01C9C009800841C8BC
:1034C00001D8C018801941D9001BC1DB81DA401A2C
:1034D000001EC1DE81DF401F01DDC01D801C41DCFC
:1034E0000014C1D481D5401501D7C017801641D62C
:1034F00001D2C012801341D30011C1D181D040103C
:1035000001F0C030803141F10033C1F381F240322B
:103510000036C1F681F7403701F5C035803441F4FB
:10352000003CC1FC81FD403D01FFC03F803E41FEAB
:1035300001FAC03A803B41FB0039C1F981F84038BB
:103540000028C1E881E9402901EBC02B802A41EA2B
:1035500001EEC02E802F41EF002DC1ED81EC402CFB
:1035600001E4C024802541E50027C1E781E640262B
:103570000022C1E281E3402301E1C021802041E03B
:1035800001A0C060806141A10063C1A381A240622B
:103590000066C1A681A7406701A5C065806441A4FB
:1035A000006CC1AC81AD406D01AFC06F806E41AEAB
:1035B00001AAC06A806B41AB0069C1A981A84068BB
:1035C0000078C1B881B9407901BBC07B807A41BA2B
:1035D00001BEC07E807F41BF007DC1BD81BC407CFB
:1035E00001B4C074807541B50077C1B781B640762B
:1035F0000072C1B281B3407301B1C071807041B03B
:103600000050C190819140510193C053805241922A
:103610000196C056805741970055C19581944054FA
:10362000019CC05C805D419D005FC19F819E405EAA
:10363000005AC19A819B405B0199C05980584198BA
:103640000188C04880494189004BC18B818A404A2A
:10365000004EC18E818F404F018DC04D804C418CFA
:103660000044C184818540450187C047804641862A
:103670000182C042804341830041C181818040403A
:1036800002030405060708090A0B0C0D0E0F1010A3
:103690000102030405060708090A0B0C0D0E0F10A2
:1036A00000000000000000000102030406070809F2
:1036B0000000000001020304D836000800000020CA
:1036C00048000000EC3000082037000848000020C7
:1036D000200C0000FA30000800000000000000008C
:1036E00000000000000000000000E80300000000EF
:1036F00000000000000000000000000000000000CA
:1037000000000000000000000000000000000000B9
:1037100001000000040000000000000000127A0018
:04000005080000B13E
:00000001FF
